{
  "abi": [
    {
      "inputs": [
        {
          "internalType": "address",
          "name": "_owner",
          "type": "address"
        }
      ],
      "stateMutability": "nonpayable",
      "type": "constructor"
    },
    {
      "stateMutability": "payable",
      "type": "fallback"
    },
    {
      "inputs": [
        {
          "internalType": "address",
          "name": "token",
          "type": "address"
        }
      ],
      "name": "recoverERC20",
      "outputs": [],
      "stateMutability": "nonpayable",
      "type": "function"
    },
    {
      "stateMutability": "payable",
      "type": "receive"
    }
  ],
  "bytecode": {
    "object": "0x60a060405234801561001057600080fd5b506040516103a13803806103a183398101604081905261002f91610040565b6001600160a01b0316608052610070565b60006020828403121561005257600080fd5b81516001600160a01b038116811461006957600080fd5b9392505050565b60805161031061009160003960008181602b015261012c01526103106000f3fe6080604052600436106100225760003560e01c80639e8c708e1461010657610029565b3661002957005b7f000000000000000000000000000000000000000000000000000000000000000033811461005657600380fd5b60003560601c60143560601c60283560801c60383560801c60483560f81c63a9059cbb60e01b607c52836080528260a0526000806044607c6000896113885a03f19450846100a357600380fd5b63022c0d9f60e01b607c528080156100c257600181146100d0576100da565b82608052600060a0526100da565b60006080528260a0525b505050503060c052608060e05260008060a4607c6000856113885a03f19150508061010457600380fd5b005b34801561011257600080fd5b5061010461012136600461026f565b336001600160a01b037f0000000000000000000000000000000000000000000000000000000000000000161461018b5760405162461bcd60e51b81526004016101829060208082526004908201526373686f6f60e01b604082015260600190565b60405180910390fd5b6040516370a0823160e01b81523060048201526000906001600160a01b038316906370a0823190602401602060405180830381865afa1580156101d2573d6000803e3d6000fd5b505050506040513d601f19601f820116820180604052508101906101f6919061029f565b60405163a9059cbb60e01b8152336004820152602481018290529091506001600160a01b0383169063a9059cbb906044016020604051808303816000875af1158015610246573d6000803e3d6000fd5b505050506040513d601f19601f8201168201806040525081019061026a91906102b8565b505050565b60006020828403121561028157600080fd5b81356001600160a01b038116811461029857600080fd5b9392505050565b6000602082840312156102b157600080fd5b5051919050565b6000602082840312156102ca57600080fd5b8151801515811461029857600080fdfea264697066735822122028af5f877105db5eade4c66ce90d7b7bd1e45627aa2d395d1ccb6d7ef26ef42664736f6c63430008140033",
    "linkReferences": {}
  },
  "methodIdentifiers": {
    "recoverERC20(address)": "9e8c708e"
  },
  "id": 25
}