{
  "abi": [
    {
      "inputs": [
        {
          "internalType": "address",
          "name": "_wethAddress",
          "type": "address"
        }
      ],
      "stateMutability": "nonpayable",
      "type": "constructor"
    },
    {
      "anonymous": false,
      "inputs": [
        {
          "indexed": true,
          "internalType": "address",
          "name": "previousOwner",
          "type": "address"
        },
        {
          "indexed": true,
          "internalType": "address",
          "name": "newOwner",
          "type": "address"
        }
      ],
      "name": "OwnershipTransferred",
      "type": "event"
    },
    {
      "inputs": [],
      "name": "WETH_ADDRESS",
      "outputs": [
        {
          "internalType": "address",
          "name": "",
          "type": "address"
        }
      ],
      "stateMutability": "view",
      "type": "function"
    },
    {
      "inputs": [
        {
          "internalType": "address payable",
          "name": "_to",
          "type": "address"
        },
        {
          "internalType": "uint256",
          "name": "_value",
          "type": "uint256"
        },
        {
          "internalType": "bytes",
          "name": "_data",
          "type": "bytes"
        }
      ],
      "name": "call",
      "outputs": [],
      "stateMutability": "nonpayable",
      "type": "function"
    },
    {
      "inputs": [
        {
          "internalType": "address",
          "name": "firstPairAddress",
          "type": "address"
        },
        {
          "internalType": "address",
          "name": "secondPairAddress",
          "type": "address"
        },
        {
          "internalType": "uint256",
          "name": "percentageToPayToCoinbase",
          "type": "uint256"
        }
      ],
      "name": "executeArbitrage",
      "outputs": [],
      "stateMutability": "nonpayable",
      "type": "function"
    },
    {
      "inputs": [
        {
          "components": [
            {
              "internalType": "uint256",
              "name": "reserve0",
              "type": "uint256"
            },
            {
              "internalType": "uint256",
              "name": "reserve1",
              "type": "uint256"
            },
            {
              "internalType": "uint256",
              "name": "price",
              "type": "uint256"
            },
            {
              "internalType": "bool",
              "name": "isWETHZero",
              "type": "bool"
            }
          ],
          "internalType": "struct IPairReserves.PairReserves",
          "name": "firstPairData",
          "type": "tuple"
        },
        {
          "components": [
            {
              "internalType": "uint256",
              "name": "reserve0",
              "type": "uint256"
            },
            {
              "internalType": "uint256",
              "name": "reserve1",
              "type": "uint256"
            },
            {
              "internalType": "uint256",
              "name": "price",
              "type": "uint256"
            },
            {
              "internalType": "bool",
              "name": "isWETHZero",
              "type": "bool"
            }
          ],
          "internalType": "struct IPairReserves.PairReserves",
          "name": "secondPairData",
          "type": "tuple"
        }
      ],
      "name": "getAmountIn",
      "outputs": [
        {
          "internalType": "uint256",
          "name": "",
          "type": "uint256"
        }
      ],
      "stateMutability": "view",
      "type": "function"
    },
    {
      "inputs": [
        {
          "internalType": "uint256",
          "name": "amountIn",
          "type": "uint256"
        },
        {
          "internalType": "uint256",
          "name": "reserveIn",
          "type": "uint256"
        },
        {
          "internalType": "uint256",
          "name": "reserveOut",
          "type": "uint256"
        }
      ],
      "name": "getAmountOut",
      "outputs": [
        {
          "internalType": "uint256",
          "name": "amountOut",
          "type": "uint256"
        }
      ],
      "stateMutability": "pure",
      "type": "function"
    },
    {
      "inputs": [
        {
          "components": [
            {
              "internalType": "uint256",
              "name": "reserve0",
              "type": "uint256"
            },
            {
              "internalType": "uint256",
              "name": "reserve1",
              "type": "uint256"
            },
            {
              "internalType": "uint256",
              "name": "price",
              "type": "uint256"
            },
            {
              "internalType": "bool",
              "name": "isWETHZero",
              "type": "bool"
            }
          ],
          "internalType": "struct IPairReserves.PairReserves",
          "name": "firstPairData",
          "type": "tuple"
        },
        {
          "components": [
            {
              "internalType": "uint256",
              "name": "reserve0",
              "type": "uint256"
            },
            {
              "internalType": "uint256",
              "name": "reserve1",
              "type": "uint256"
            },
            {
              "internalType": "uint256",
              "name": "price",
              "type": "uint256"
            },
            {
              "internalType": "bool",
              "name": "isWETHZero",
              "type": "bool"
            }
          ],
          "internalType": "struct IPairReserves.PairReserves",
          "name": "secondPairData",
          "type": "tuple"
        }
      ],
      "name": "getDenominator",
      "outputs": [
        {
          "internalType": "uint256",
          "name": "",
          "type": "uint256"
        }
      ],
      "stateMutability": "view",
      "type": "function"
    },
    {
      "inputs": [
        {
          "components": [
            {
              "internalType": "uint256",
              "name": "reserve0",
              "type": "uint256"
            },
            {
              "internalType": "uint256",
              "name": "reserve1",
              "type": "uint256"
            },
            {
              "internalType": "uint256",
              "name": "price",
              "type": "uint256"
            },
            {
              "internalType": "bool",
              "name": "isWETHZero",
              "type": "bool"
            }
          ],
          "internalType": "struct IPairReserves.PairReserves",
          "name": "firstPairData",
          "type": "tuple"
        },
        {
          "components": [
            {
              "internalType": "uint256",
              "name": "reserve0",
              "type": "uint256"
            },
            {
              "internalType": "uint256",
              "name": "reserve1",
              "type": "uint256"
            },
            {
              "internalType": "uint256",
              "name": "price",
              "type": "uint256"
            },
            {
              "internalType": "bool",
              "name": "isWETHZero",
              "type": "bool"
            }
          ],
          "internalType": "struct IPairReserves.PairReserves",
          "name": "secondPairData",
          "type": "tuple"
        }
      ],
      "name": "getNumerator",
      "outputs": [
        {
          "internalType": "uint256",
          "name": "",
          "type": "uint256"
        }
      ],
      "stateMutability": "view",
      "type": "function"
    },
    {
      "inputs": [
        {
          "internalType": "contract IUniswapV2Pair",
          "name": "pair",
          "type": "address"
        }
      ],
      "name": "getPairData",
      "outputs": [
        {
          "components": [
            {
              "internalType": "uint256",
              "name": "reserve0",
              "type": "uint256"
            },
            {
              "internalType": "uint256",
              "name": "reserve1",
              "type": "uint256"
            },
            {
              "internalType": "uint256",
              "name": "price",
              "type": "uint256"
            },
            {
              "internalType": "bool",
              "name": "isWETHZero",
              "type": "bool"
            }
          ],
          "internalType": "struct IPairReserves.PairReserves",
          "name": "",
          "type": "tuple"
        }
      ],
      "stateMutability": "view",
      "type": "function"
    },
    {
      "inputs": [
        {
          "components": [
            {
              "internalType": "address",
              "name": "pair",
              "type": "address"
            },
            {
              "internalType": "uint256",
              "name": "amountIn",
              "type": "uint256"
            },
            {
              "internalType": "uint256",
              "name": "amountOut",
              "type": "uint256"
            },
            {
              "internalType": "bool",
              "name": "isZeroOut",
              "type": "bool"
            }
          ],
          "internalType": "struct BlindBackrun.SwapInfo[]",
          "name": "_swaps",
          "type": "tuple[]"
        },
        {
          "internalType": "uint256",
          "name": "payToCoinbase",
          "type": "uint256"
        }
      ],
      "name": "multi_swap",
      "outputs": [],
      "stateMutability": "nonpayable",
      "type": "function"
    },
    {
      "inputs": [],
      "name": "owner",
      "outputs": [
        {
          "internalType": "address",
          "name": "",
          "type": "address"
        }
      ],
      "stateMutability": "view",
      "type": "function"
    },
    {
      "inputs": [],
      "name": "renounceOwnership",
      "outputs": [],
      "stateMutability": "nonpayable",
      "type": "function"
    },
    {
      "inputs": [
        {
          "internalType": "address",
          "name": "newOwner",
          "type": "address"
        }
      ],
      "name": "transferOwnership",
      "outputs": [],
      "stateMutability": "nonpayable",
      "type": "function"
    },
    {
      "inputs": [],
      "name": "withdrawETHToOwner",
      "outputs": [],
      "stateMutability": "nonpayable",
      "type": "function"
    },
    {
      "inputs": [],
      "name": "withdrawWETHToOwner",
      "outputs": [],
      "stateMutability": "nonpayable",
      "type": "function"
    },
    {
      "stateMutability": "payable",
      "type": "receive"
    }
  ],
  "bytecode": {
    "object": "0x60a06040526103e56001553480156200001757600080fd5b506040516200208a3803806200208a8339810160408190526200003a91620000a7565b620000453362000057565b6001600160a01b0316608052620000d9565b600080546001600160a01b038381166001600160a01b0319831681178455604051919092169283917f8be0079c531659141344cd1fd0a4f28419497f9722a3daafe3b4186f6b6457e09190a35050565b600060208284031215620000ba57600080fd5b81516001600160a01b0381168114620000d257600080fd5b9392505050565b608051611f566200013460003960008181610131015281816105620152818161071f015281816108e5015281816109fd01528181610c48015281816111c3015281816113650152818161152501526115b70152611f566000f3fe6080604052600436106100e05760003560e01c80636dbf2fa01161007f5780638da5cb5b116100595780638da5cb5b1461028c578063ea3e506c146102aa578063eb6b2116146102bf578063f2fde38b146102df57600080fd5b80636dbf2fa014610242578063715018a61461026257806377432b8c1461027757600080fd5b80631fa7d39b116100bb5780631fa7d39b1461018b5780632bd0411e146101ab5780634677f223146101cd578063650f84be1461022257600080fd5b8062bb7d67146100ec578063040141e51461011f578063054d50d41461016b57600080fd5b366100e757005b600080fd5b3480156100f857600080fd5b5061010c610107366004611a24565b6102ff565b6040519081526020015b60405180910390f35b34801561012b57600080fd5b506101537f000000000000000000000000000000000000000000000000000000000000000081565b6040516001600160a01b039091168152602001610116565b34801561017757600080fd5b5061010c610186366004611a5a565b610452565b34801561019757600080fd5b5061010c6101a6366004611a24565b6104a0565b3480156101b757600080fd5b506101cb6101c6366004611a9b565b61052e565b005b3480156101d957600080fd5b506101ed6101e8366004611b93565b6107b6565b604051610116919081518152602080830151908201526040808301519082015260609182015115159181019190915260800190565b34801561022e57600080fd5b506101cb61023d366004611bb0565b6109dd565b34801561024e57600080fd5b506101cb61025d366004611bf1565b611407565b34801561026e57600080fd5b506101cb6114ba565b34801561028357600080fd5b506101cb6114ce565b34801561029857600080fd5b506000546001600160a01b0316610153565b3480156102b657600080fd5b506101cb611505565b3480156102cb57600080fd5b5061010c6102da366004611a24565b61162c565b3480156102eb57600080fd5b506101cb6102fa366004611b93565b6116c5565b606082015160009015156001036103f0576000610355846000015161034f856020015161034f87600001516103498a6020015161034960015460015461173e90919063ffffffff16565b9061173e565b90611751565b90506103846040518060400160405280600b81526020016a707265737172743a20257360a81b8152508261175d565b6103bf60405180604001604052806011815260200170737172742870726573717274293a20257360781b8152506103ba836117a2565b61175d565b60006103e6856000015161034986602001516103496103e86103e0886117a2565b906117ee565b925061044c915050565b6000610429846020015161034f856000015161034f87602001516103498a6000015161034960015460015461173e90919063ffffffff16565b905060006103e6856020015161034986600001516103496103e86103e0886117a2565b92915050565b600080610461856103e561173e565b9050600061046f828561173e565b9050600061048983610483886103e861173e565b906117fa565b90506104958183611cb8565b979650505050505050565b606082015160009015156001036104fd5760006104f46104d5856020015161034960015460015461173e90919063ffffffff16565b6104836103e8610349876020015160015461173e90919063ffffffff16565b915061044c9050565b82516001546000916104f4916105189190610349908061173e565b8451600154610483916103e8916103499161173e565b610536611806565b60005b825181101561070257600083828151811061055657610556611cda565b602002602001015190507f00000000000000000000000000000000000000000000000000000000000000006001600160a01b031663a9059cbb826000015183602001516040518363ffffffff1660e01b81526004016105ca9291906001600160a01b03929092168252602082015260400190565b6020604051808303816000875af11580156105e9573d6000803e3d6000fd5b505050506040513d601f19601f8201168201806040525081019061060d9190611cf0565b50805160608201511561068657604080830151905163022c0d9f60e01b81526001600160a01b0383169163022c0d9f9161064f91906000903090600401611d0d565b600060405180830381600087803b15801561066957600080fd5b505af115801561067d573d6000803e3d6000fd5b505050506106ed565b604080830151905163022c0d9f60e01b81526001600160a01b0383169163022c0d9f916106ba916000913090600401611d0d565b600060405180830381600087803b1580156106d457600080fd5b505af11580156106e8573d6000803e3d6000fd5b505050505b505080806106fa90611d3b565b915050610539565b5080156107b257604051632e1a7d4d60e01b8152600481018290527f00000000000000000000000000000000000000000000000000000000000000006001600160a01b031690632e1a7d4d90602401600060405180830381600087803b15801561076b57600080fd5b505af115801561077f573d6000803e3d6000fd5b505060405141925083156108fc02915083906000818181858888f193505050501580156107b0573d6000803e3d6000fd5b505b5050565b6107e360405180608001604052806000815260200160008152602001600081526020016000151581525090565b600080836001600160a01b0316630902f1ac6040518163ffffffff1660e01b8152600401606060405180830381865afa158015610824573d6000803e3d6000fd5b505050506040513d601f19601f820116820180604052508101906108489190611d70565b506001600160701b031691506001600160701b03169150610886604051806040016040528060058152602001643830b4b91d60d91b81525085611860565b6108b1604051806040016040528060098152602001683932b9b2b93b32981d60b91b8152508361175d565b6108dc604051806040016040528060098152602001683932b9b2b93b32989d60b91b8152508261175d565b600080600090507f00000000000000000000000000000000000000000000000000000000000000006001600160a01b0316866001600160a01b0316630dfe16816040518163ffffffff1660e01b8152600401602060405180830381865afa15801561094b573d6000803e3d6000fd5b505050506040513d601f19601f8201168201806040525081019061096f9190611dc0565b6001600160a01b03160361099e576109938461034f85670de0b6b3a764000061173e565b9150600190506109b7565b6109b48361034f86670de0b6b3a764000061173e565b91505b604080516080810182529485526020850193909352918301521515606082015292915050565b6109e5611806565b6040516370a0823160e01b81523060048201526000907f00000000000000000000000000000000000000000000000000000000000000006001600160a01b0316906370a0823190602401602060405180830381865afa158015610a4c573d6000803e3d6000fd5b505050506040513d601f19601f82011682018060405250810190610a709190611ddd565b9050610aaa604051806040016040528060168152602001755374617274696e672062616c616e636520203a20257360501b8152508261175d565b60408051808201909152601e81527f0a2d2d2d2d2d2d2d2d2d20504149522044415441202d2d2d2d2d2d2d2d2d0000602082015284908490610aeb906118a5565b6000610af6836107b6565b90506000610b03836107b6565b9050610b436040518060400160405280601b81526020017f0a2d2d2d2d2d2d2d2d2d20505249434553202d2d2d2d2d2d2d2d2d00000000008152506118a5565b610b7f604051806040016040528060168152602001756669727374506169722070726963652020203a20257360501b815250836040015161175d565b610bbb604051806040016040528060168152602001757365636f6e645061697220707269636520203a20257360501b815250826040015161175d565b6000610bc7838361162c565b9050610bea604051806060016040528060228152602001611eff602291396118a5565b610c2260405180604001604052806016815260200175616d6f756e74496e202020202020202020203a20257360501b8152508261175d565b60405163a9059cbb60e01b81526001600160a01b038a81166004830152602482018390527f0000000000000000000000000000000000000000000000000000000000000000169063a9059cbb906044016020604051808303816000875af1158015610c91573d6000803e3d6000fd5b505050506040513d601f19601f82011682018060405250810190610cb59190611cf0565b50600080846060015115156001151503610f1057610cdc8386600001518760200151610452565b9150610cf18285602001518660000151610452565b9050610d2b60405180604001604052806016815260200175666972737450616972416d6f756e744f75743a20257360501b8152508361175d565b610d636040518060400160405280601681526020017566696e616c416d6f756e744f7574202020203a20257360501b8152508261175d565b6040805180820190915260168152756172622070726f66697420202020202020203a20257360501b6020820152610d9e906103ba83866117ee565b610ddc6040518060400160405280601c81526020017f0a2d2d2d2d2d2d2d2d2d2054524144494e47202d2d2d2d2d2d2d2d2d000000008152506118a5565b60405163022c0d9f60e01b81526001600160a01b0388169063022c0d9f90610e0d9060009086908f90600401611d0d565b600060405180830381600087803b158015610e2757600080fd5b505af1158015610e3b573d6000803e3d6000fd5b50505050610e7360405180604001604052806013815260200172666972737450616972207377617020646f6e6560681b8152506118a5565b60405163022c0d9f60e01b81526001600160a01b0387169063022c0d9f90610ea49084906000903090600401611d0d565b600060405180830381600087803b158015610ebe57600080fd5b505af1158015610ed2573d6000803e3d6000fd5b50505050610f0b604051806040016040528060148152602001737365636f6e6450616972207377617020646f6e6560601b8152506118a5565b6111ab565b610f238386602001518760000151610452565b9150610f388285600001518660200151610452565b9050610f5b604051806060016040528060228152602001611eff602291396118a5565b610f9360405180604001604052806016815260200175616d6f756e74496e202020202020202020203a20257360501b8152508461175d565b610fcb60405180604001604052806016815260200175666972737450616972416d6f756e744f75743a20257360501b8152508361175d565b6110036040518060400160405280601681526020017566696e616c416d6f756e744f7574202020203a20257360501b8152508261175d565b6040805180820190915260168152756172622070726f66697420202020202020203a20257360501b602082015261103e906103ba83866117ee565b61107c6040518060400160405280601c81526020017f0a2d2d2d2d2d2d2d2d2d2054524144494e47202d2d2d2d2d2d2d2d2d000000008152506118a5565b60405163022c0d9f60e01b81526001600160a01b0388169063022c0d9f906110ad9085906000908f90600401611d0d565b600060405180830381600087803b1580156110c757600080fd5b505af11580156110db573d6000803e3d6000fd5b5050505061111360405180604001604052806013815260200172666972737450616972207377617020646f6e6560681b8152506118a5565b60405163022c0d9f60e01b81526001600160a01b0387169063022c0d9f906111449060009085903090600401611d0d565b600060405180830381600087803b15801561115e57600080fd5b505af1158015611172573d6000803e3d6000fd5b505050506111ab604051806040016040528060148152602001737365636f6e6450616972207377617020646f6e6560601b8152506118a5565b6040516370a0823160e01b81523060048201526000907f00000000000000000000000000000000000000000000000000000000000000006001600160a01b0316906370a0823190602401602060405180830381865afa158015611212573d6000803e3d6000fd5b505050506040513d601f19601f820116820180604052508101906112369190611ddd565b905088811161127f5760405162461bcd60e51b815260206004820152601060248201526f105c989a5d1c9859d94819985a5b195960821b60448201526064015b60405180910390fd5b6112bd6040518060400160405280601c81526020017f0a2d2d2d2d2d2d2d2d2d2053554343455353202d2d2d2d2d2d2d2d2d000000008152506118a5565b6112f560405180604001604052806016815260200175456e64696e672062616c616e6365202020203a20257360501b8152508261175d565b6000611301828b6117ee565b905061133b6040518060400160405280601681526020017550726f6669742020202020202020202020203a20257360501b8152508261175d565b600061134c606461034f848f61173e565b604051632e1a7d4d60e01b8152600481018290529091507f00000000000000000000000000000000000000000000000000000000000000006001600160a01b031690632e1a7d4d90602401600060405180830381600087803b1580156113b157600080fd5b505af11580156113c5573d6000803e3d6000fd5b505060405141925083156108fc02915083906000818181858888f193505050501580156113f6573d6000803e3d6000fd5b505050505050505050505050505050565b61140f611806565b6000836001600160a01b0316838360405161142a9190611e1a565b60006040518083038185875af1925050503d8060008114611467576040519150601f19603f3d011682016040523d82523d6000602084013e61146c565b606091505b50509050806114b45760405162461bcd60e51b8152602060048201526014602482015273115e1d195c9b985b0818d85b1b0819985a5b195960621b6044820152606401611276565b50505050565b6114c2611806565b6114cc60006118e8565b565b6114d6611806565b6040514790339082156108fc029083906000818181858888f193505050501580156107b2573d6000803e3d6000fd5b61150d611806565b6040516370a0823160e01b81523060048201526000907f00000000000000000000000000000000000000000000000000000000000000006001600160a01b0316906370a0823190602401602060405180830381865afa158015611574573d6000803e3d6000fd5b505050506040513d601f19601f820116820180604052508101906115989190611ddd565b60405163a9059cbb60e01b8152336004820152602481018290529091507f00000000000000000000000000000000000000000000000000000000000000006001600160a01b03169063a9059cbb906044016020604051808303816000875af1158015611608573d6000803e3d6000fd5b505050506040513d601f19601f820116820180604052508101906107b29190611cf0565b60008061163984846102ff565b905061166a6040518060400160405280600d81526020016c6e756d657261746f723a20257360981b8152508261175d565b600061167685856104a0565b90506116a96040518060400160405280600f81526020016e64656e6f6d696e61746f723a20257360881b8152508261175d565b60006116bb8261034f856103e861173e565b9695505050505050565b6116cd611806565b6001600160a01b0381166117325760405162461bcd60e51b815260206004820152602660248201527f4f776e61626c653a206e6577206f776e657220697320746865207a65726f206160448201526564647265737360d01b6064820152608401611276565b61173b816118e8565b50565b600061174a8284611e36565b9392505050565b600061174a8284611cb8565b6107b28282604051602401611773929190611e79565b60408051601f198184030181529190526020810180516001600160e01b03166309710a9d60e41b179052611938565b6000816000036117b457506000919050565b60006117c6600261034f8560016117fa565b9050825b8082101561174a5750806117e7600261034f836104838882611751565b91506117ca565b600061174a8284611e9b565b600061174a8284611eae565b6000546001600160a01b031633146114cc5760405162461bcd60e51b815260206004820181905260248201527f4f776e61626c653a2063616c6c6572206973206e6f7420746865206f776e65726044820152606401611276565b6107b28282604051602401611876929190611ec1565b60408051601f198184030181529190526020810180516001600160e01b031663319af33360e01b179052611938565b61173b816040516024016118b99190611eeb565b60408051601f198184030181529190526020810180516001600160e01b031663104c13eb60e21b179052611938565b600080546001600160a01b038381166001600160a01b0319831681178455604051919092169283917f8be0079c531659141344cd1fd0a4f28419497f9722a3daafe3b4186f6b6457e09190a35050565b80516a636f6e736f6c652e6c6f67602083016000808483855afa5050505050565b634e487b7160e01b600052604160045260246000fd5b6040516080810167ffffffffffffffff8111828210171561199257611992611959565b60405290565b604051601f8201601f1916810167ffffffffffffffff811182821017156119c1576119c1611959565b604052919050565b801515811461173b57600080fd5b6000608082840312156119e957600080fd5b6119f161196f565b90508135815260208201356020820152604082013560408201526060820135611a19816119c9565b606082015292915050565b6000806101008385031215611a3857600080fd5b611a4284846119d7565b9150611a5184608085016119d7565b90509250929050565b600080600060608486031215611a6f57600080fd5b505081359360208301359350604090920135919050565b6001600160a01b038116811461173b57600080fd5b6000806040808486031215611aaf57600080fd5b833567ffffffffffffffff80821115611ac757600080fd5b818601915086601f830112611adb57600080fd5b8135602082821115611aef57611aef611959565b611afd818360051b01611998565b828152818101935060079290921b840181019189831115611b1d57600080fd5b938101935b82851015611b85576080858b031215611b3b5760008081fd5b611b4361196f565b8535611b4e81611a86565b815285830135838201528686013587820152606080870135611b6f816119c9565b9082015284526080949094019392810192611b22565b999701359750505050505050565b600060208284031215611ba557600080fd5b813561174a81611a86565b600080600060608486031215611bc557600080fd5b8335611bd081611a86565b92506020840135611be081611a86565b929592945050506040919091013590565b600080600060608486031215611c0657600080fd5b8335611c1181611a86565b92506020848101359250604085013567ffffffffffffffff80821115611c3657600080fd5b818701915087601f830112611c4a57600080fd5b813581811115611c5c57611c5c611959565b611c6e601f8201601f19168501611998565b91508082528884828501011115611c8457600080fd5b80848401858401376000848284010152508093505050509250925092565b634e487b7160e01b600052601160045260246000fd5b600082611cd557634e487b7160e01b600052601260045260246000fd5b500490565b634e487b7160e01b600052603260045260246000fd5b600060208284031215611d0257600080fd5b815161174a816119c9565b92835260208301919091526001600160a01b0316604082015260806060820181905260009082015260a00190565b600060018201611d4d57611d4d611ca2565b5060010190565b80516001600160701b0381168114611d6b57600080fd5b919050565b600080600060608486031215611d8557600080fd5b611d8e84611d54565b9250611d9c60208501611d54565b9150604084015163ffffffff81168114611db557600080fd5b809150509250925092565b600060208284031215611dd257600080fd5b815161174a81611a86565b600060208284031215611def57600080fd5b5051919050565b60005b83811015611e11578181015183820152602001611df9565b50506000910152565b60008251611e2c818460208701611df6565b9190910192915050565b808202811582820484141761044c5761044c611ca2565b60008151808452611e65816020860160208601611df6565b601f01601f19169290920160200192915050565b604081526000611e8c6040830185611e4d565b90508260208301529392505050565b8181038181111561044c5761044c611ca2565b8082018082111561044c5761044c611ca2565b604081526000611ed46040830185611e4d565b905060018060a01b03831660208301529392505050565b60208152600061174a6020830184611e4d56fe0a2d2d2d2d2d2d2d2d2d20545241444520414d4f554e5453202d2d2d2d2d2d2d2d2da26469706673582212204b94b59b521edc01cb021aca7570d625ef8892a6823538c473a3eb84b3921cbd64736f6c63430008140033",
    "linkReferences": {}
  },
  "methodIdentifiers": {
    "WETH_ADDRESS()": "040141e5",
    "call(address,uint256,bytes)": "6dbf2fa0",
    "executeArbitrage(address,address,uint256)": "650f84be",
    "getAmountIn((uint256,uint256,uint256,bool),(uint256,uint256,uint256,bool))": "eb6b2116",
    "getAmountOut(uint256,uint256,uint256)": "054d50d4",
    "getDenominator((uint256,uint256,uint256,bool),(uint256,uint256,uint256,bool))": "1fa7d39b",
    "getNumerator((uint256,uint256,uint256,bool),(uint256,uint256,uint256,bool))": "00bb7d67",
    "getPairData(address)": "4677f223",
    "multi_swap((address,uint256,uint256,bool)[],uint256)": "2bd0411e",
    "owner()": "8da5cb5b",
    "renounceOwnership()": "715018a6",
    "transferOwnership(address)": "f2fde38b",
    "withdrawETHToOwner()": "77432b8c",
    "withdrawWETHToOwner()": "ea3e506c"
  },
  "id": 24
}