{
  "abi": [
    {
      "inputs": [
        {
          "internalType": "address",
          "name": "_wethAddress",
          "type": "address"
        }
      ],
      "stateMutability": "nonpayable",
      "type": "constructor"
    },
    {
      "anonymous": false,
      "inputs": [
        {
          "indexed": true,
          "internalType": "address",
          "name": "previousOwner",
          "type": "address"
        },
        {
          "indexed": true,
          "internalType": "address",
          "name": "newOwner",
          "type": "address"
        }
      ],
      "name": "OwnershipTransferred",
      "type": "event"
    },
    {
      "inputs": [],
      "name": "WETH_ADDRESS",
      "outputs": [
        {
          "internalType": "address",
          "name": "",
          "type": "address"
        }
      ],
      "stateMutability": "view",
      "type": "function"
    },
    {
      "inputs": [
        {
          "internalType": "address payable",
          "name": "_to",
          "type": "address"
        },
        {
          "internalType": "uint256",
          "name": "_value",
          "type": "uint256"
        },
        {
          "internalType": "bytes",
          "name": "_data",
          "type": "bytes"
        }
      ],
      "name": "call",
      "outputs": [],
      "stateMutability": "nonpayable",
      "type": "function"
    },
    {
      "inputs": [
        {
          "internalType": "address",
          "name": "firstPairAddress",
          "type": "address"
        },
        {
          "internalType": "address",
          "name": "secondPairAddress",
          "type": "address"
        },
        {
          "internalType": "uint256",
          "name": "percentageToPayToCoinbase",
          "type": "uint256"
        }
      ],
      "name": "executeArbitrage",
      "outputs": [],
      "stateMutability": "nonpayable",
      "type": "function"
    },
    {
      "inputs": [
        {
          "components": [
            {
              "internalType": "uint256",
              "name": "reserve0",
              "type": "uint256"
            },
            {
              "internalType": "uint256",
              "name": "reserve1",
              "type": "uint256"
            },
            {
              "internalType": "uint256",
              "name": "price",
              "type": "uint256"
            },
            {
              "internalType": "bool",
              "name": "isWETHZero",
              "type": "bool"
            }
          ],
          "internalType": "struct IPairReserves.PairReserves",
          "name": "firstPairData",
          "type": "tuple"
        },
        {
          "components": [
            {
              "internalType": "uint256",
              "name": "reserve0",
              "type": "uint256"
            },
            {
              "internalType": "uint256",
              "name": "reserve1",
              "type": "uint256"
            },
            {
              "internalType": "uint256",
              "name": "price",
              "type": "uint256"
            },
            {
              "internalType": "bool",
              "name": "isWETHZero",
              "type": "bool"
            }
          ],
          "internalType": "struct IPairReserves.PairReserves",
          "name": "secondPairData",
          "type": "tuple"
        }
      ],
      "name": "getAmountIn",
      "outputs": [
        {
          "internalType": "uint256",
          "name": "",
          "type": "uint256"
        }
      ],
      "stateMutability": "nonpayable",
      "type": "function"
    },
    {
      "inputs": [
        {
          "components": [
            {
              "internalType": "uint256",
              "name": "reserve0",
              "type": "uint256"
            },
            {
              "internalType": "uint256",
              "name": "reserve1",
              "type": "uint256"
            },
            {
              "internalType": "uint256",
              "name": "price",
              "type": "uint256"
            },
            {
              "internalType": "bool",
              "name": "isWETHZero",
              "type": "bool"
            }
          ],
          "internalType": "struct IPairReserves.PairReserves",
          "name": "firstPairData",
          "type": "tuple"
        },
        {
          "components": [
            {
              "internalType": "uint256",
              "name": "reserve0",
              "type": "uint256"
            },
            {
              "internalType": "uint256",
              "name": "reserve1",
              "type": "uint256"
            },
            {
              "internalType": "uint256",
              "name": "price",
              "type": "uint256"
            },
            {
              "internalType": "bool",
              "name": "isWETHZero",
              "type": "bool"
            }
          ],
          "internalType": "struct IPairReserves.PairReserves",
          "name": "secondPairData",
          "type": "tuple"
        }
      ],
      "name": "getDenominator",
      "outputs": [
        {
          "internalType": "uint256",
          "name": "",
          "type": "uint256"
        }
      ],
      "stateMutability": "nonpayable",
      "type": "function"
    },
    {
      "inputs": [
        {
          "components": [
            {
              "internalType": "uint256",
              "name": "reserve0",
              "type": "uint256"
            },
            {
              "internalType": "uint256",
              "name": "reserve1",
              "type": "uint256"
            },
            {
              "internalType": "uint256",
              "name": "price",
              "type": "uint256"
            },
            {
              "internalType": "bool",
              "name": "isWETHZero",
              "type": "bool"
            }
          ],
          "internalType": "struct IPairReserves.PairReserves",
          "name": "firstPairData",
          "type": "tuple"
        },
        {
          "components": [
            {
              "internalType": "uint256",
              "name": "reserve0",
              "type": "uint256"
            },
            {
              "internalType": "uint256",
              "name": "reserve1",
              "type": "uint256"
            },
            {
              "internalType": "uint256",
              "name": "price",
              "type": "uint256"
            },
            {
              "internalType": "bool",
              "name": "isWETHZero",
              "type": "bool"
            }
          ],
          "internalType": "struct IPairReserves.PairReserves",
          "name": "secondPairData",
          "type": "tuple"
        }
      ],
      "name": "getNumerator",
      "outputs": [
        {
          "internalType": "uint256",
          "name": "",
          "type": "uint256"
        }
      ],
      "stateMutability": "view",
      "type": "function"
    },
    {
      "inputs": [],
      "name": "owner",
      "outputs": [
        {
          "internalType": "address",
          "name": "",
          "type": "address"
        }
      ],
      "stateMutability": "view",
      "type": "function"
    },
    {
      "inputs": [],
      "name": "renounceOwnership",
      "outputs": [],
      "stateMutability": "nonpayable",
      "type": "function"
    },
    {
      "inputs": [
        {
          "internalType": "address",
          "name": "newOwner",
          "type": "address"
        }
      ],
      "name": "transferOwnership",
      "outputs": [],
      "stateMutability": "nonpayable",
      "type": "function"
    },
    {
      "inputs": [],
      "name": "withdrawETHToOwner",
      "outputs": [],
      "stateMutability": "nonpayable",
      "type": "function"
    },
    {
      "inputs": [],
      "name": "withdrawWETHToOwner",
      "outputs": [],
      "stateMutability": "nonpayable",
      "type": "function"
    },
    {
      "stateMutability": "payable",
      "type": "receive"
    }
  ],
  "bytecode": {
    "object": "0x60a06040526103e560015534801561001657600080fd5b506040516113a13803806113a18339810160408190526100359161009f565b61003e3361004f565b6001600160a01b03166080526100cf565b600080546001600160a01b038381166001600160a01b0319831681178455604051919092169283917f8be0079c531659141344cd1fd0a4f28419497f9722a3daafe3b4186f6b6457e09190a35050565b6000602082840312156100b157600080fd5b81516001600160a01b03811681146100c857600080fd5b9392505050565b60805161128761011a6000396000818160f0015281816103c80152818161048e0152818161071101528181610805015281816109c901528181610a5b0152610d1101526112876000f3fe60806040526004361061009f5760003560e01c8063715018a611610064578063715018a61461018c57806377432b8c146101a15780638da5cb5b146101b6578063ea3e506c146101d4578063eb6b2116146101e9578063f2fde38b1461020957600080fd5b8062bb7d67146100ab578063040141e5146100de5780631fa7d39b1461012a578063650f84be1461014a5780636dbf2fa01461016c57600080fd5b366100a657005b600080fd5b3480156100b757600080fd5b506100cb6100c6366004610f66565b610229565b6040519081526020015b60405180910390f35b3480156100ea57600080fd5b506101127f000000000000000000000000000000000000000000000000000000000000000081565b6040516001600160a01b0390911681526020016100d5565b34801561013657600080fd5b506100cb610145366004610f66565b610314565b34801561015657600080fd5b5061016a610165366004610fb1565b6103a8565b005b34801561017857600080fd5b5061016a610187366004610ff2565b6108a7565b34801561019857600080fd5b5061016a61095a565b3480156101ad57600080fd5b5061016a61096e565b3480156101c257600080fd5b506000546001600160a01b0316610112565b3480156101e057600080fd5b5061016a6109a9565b3480156101f557600080fd5b506100cb610204366004610f66565b610ad0565b34801561021557600080fd5b5061016a6102243660046110a3565b610b09565b606082015160009015156001036102b257600061027f8460000151610279856020015161027987600001516102738a60200151610273600154600154610b8290919063ffffffff16565b90610b82565b90610b95565b905060006102a8856000015161027386602001516102736103e86102a288610ba1565b90610bed565b925061030e915050565b60006102eb8460200151610279856000015161027987602001516102738a60000151610273600154600154610b8290919063ffffffff16565b905060006102a8856020015161027386600001516102736103e86102a288610ba1565b92915050565b6060820151600090151560010361037757600061036e6103498560200151610273600154600154610b8290919063ffffffff16565b6103686103e86102738760200151600154610b8290919063ffffffff16565b90610bf9565b915061030e9050565b825160015460009161036e9161039291906102739080610b82565b8451600154610368916103e89161027391610b82565b6103b0610c05565b6040516370a0823160e01b81523060048201526000907f00000000000000000000000000000000000000000000000000000000000000006001600160a01b0316906370a0823190602401602060405180830381865afa158015610417573d6000803e3d6000fd5b505050506040513d601f19601f8201168201806040525081019061043b91906110c0565b90508383600061044a83610c5f565b9050600061045783610c5f565b905060006104658383610ad0565b60405163a9059cbb60e01b81526001600160a01b038b81166004830152602482018390529192507f00000000000000000000000000000000000000000000000000000000000000009091169063a9059cbb906044016020604051808303816000875af11580156104d9573d6000803e3d6000fd5b505050506040513d601f19601f820116820180604052508101906104fd91906110d9565b50600080846060015115156001151503610607576105248386600001518760200151610e09565b91506105398285602001518660000151610e09565b60405163022c0d9f60e01b81529091506001600160a01b0388169063022c0d9f9061056d9060009086908f906004016110f6565b600060405180830381600087803b15801561058757600080fd5b505af115801561059b573d6000803e3d6000fd5b505060405163022c0d9f60e01b81526001600160a01b038916925063022c0d9f91506105d090849060009030906004016110f6565b600060405180830381600087803b1580156105ea57600080fd5b505af11580156105fe573d6000803e3d6000fd5b505050506106f9565b61061a8386602001518760000151610e09565b915061062f8285600001518660200151610e09565b60405163022c0d9f60e01b81529091506001600160a01b0388169063022c0d9f906106639085906000908f906004016110f6565b600060405180830381600087803b15801561067d57600080fd5b505af1158015610691573d6000803e3d6000fd5b505060405163022c0d9f60e01b81526001600160a01b038916925063022c0d9f91506106c690600090859030906004016110f6565b600060405180830381600087803b1580156106e057600080fd5b505af11580156106f4573d6000803e3d6000fd5b505050505b6040516370a0823160e01b81523060048201526000907f00000000000000000000000000000000000000000000000000000000000000006001600160a01b0316906370a0823190602401602060405180830381865afa158015610760573d6000803e3d6000fd5b505050506040513d601f19601f8201168201806040525081019061078491906110c0565b90508881116107cd5760405162461bcd60e51b815260206004820152601060248201526f105c989a5d1c9859d94819985a5b195960821b60448201526064015b60405180910390fd5b60006107d9828b610bed565b905060006107ec6064610279848f610b82565b604051632e1a7d4d60e01b8152600481018290529091507f00000000000000000000000000000000000000000000000000000000000000006001600160a01b031690632e1a7d4d90602401600060405180830381600087803b15801561085157600080fd5b505af1158015610865573d6000803e3d6000fd5b505060405141925083156108fc02915083906000818181858888f19350505050158015610896573d6000803e3d6000fd5b505050505050505050505050505050565b6108af610c05565b6000836001600160a01b031683836040516108ca9190611124565b60006040518083038185875af1925050503d8060008114610907576040519150601f19603f3d011682016040523d82523d6000602084013e61090c565b606091505b50509050806109545760405162461bcd60e51b8152602060048201526014602482015273115e1d195c9b985b0818d85b1b0819985a5b195960621b60448201526064016107c4565b50505050565b610962610c05565b61096c6000610e51565b565b610976610c05565b6040514790339082156108fc029083906000818181858888f193505050501580156109a5573d6000803e3d6000fd5b5050565b6109b1610c05565b6040516370a0823160e01b81523060048201526000907f00000000000000000000000000000000000000000000000000000000000000006001600160a01b0316906370a0823190602401602060405180830381865afa158015610a18573d6000803e3d6000fd5b505050506040513d601f19601f82011682018060405250810190610a3c91906110c0565b60405163a9059cbb60e01b8152336004820152602481018290529091507f00000000000000000000000000000000000000000000000000000000000000006001600160a01b03169063a9059cbb906044016020604051808303816000875af1158015610aac573d6000803e3d6000fd5b505050506040513d601f19601f820116820180604052508101906109a591906110d9565b600080610add8484610229565b90506000610aeb8585610314565b90506000610aff82610279856103e8610b82565b9695505050505050565b610b11610c05565b6001600160a01b038116610b765760405162461bcd60e51b815260206004820152602660248201527f4f776e61626c653a206e6577206f776e657220697320746865207a65726f206160448201526564647265737360d01b60648201526084016107c4565b610b7f81610e51565b50565b6000610b8e8284611169565b9392505050565b6000610b8e8284611180565b600081600003610bb357506000919050565b6000610bc56002610279856001610bf9565b9050825b80821015610b8e575080610be66002610279836103688882610b95565b9150610bc9565b6000610b8e82846111a2565b6000610b8e82846111b5565b6000546001600160a01b0316331461096c5760405162461bcd60e51b815260206004820181905260248201527f4f776e61626c653a2063616c6c6572206973206e6f7420746865206f776e657260448201526064016107c4565b610c8c60405180608001604052806000815260200160008152602001600081526020016000151581525090565b600080836001600160a01b0316630902f1ac6040518163ffffffff1660e01b8152600401606060405180830381865afa158015610ccd573d6000803e3d6000fd5b505050506040513d601f19601f82011682018060405250810190610cf191906111e4565b506001600160701b031691506001600160701b03169150600080600090507f00000000000000000000000000000000000000000000000000000000000000006001600160a01b0316866001600160a01b0316630dfe16816040518163ffffffff1660e01b8152600401602060405180830381865afa158015610d77573d6000803e3d6000fd5b505050506040513d601f19601f82011682018060405250810190610d9b9190611234565b6001600160a01b031603610dca57610dbf8461027985670de0b6b3a7640000610b82565b915060019050610de3565b610de08361027986670de0b6b3a7640000610b82565b91505b604080516080810182529485526020850193909352918301521515606082015292915050565b600080610e18856103e5610b82565b90506000610e268285610b82565b90506000610e3a83610368886103e8610b82565b9050610e468183611180565b979650505050505050565b600080546001600160a01b038381166001600160a01b0319831681178455604051919092169283917f8be0079c531659141344cd1fd0a4f28419497f9722a3daafe3b4186f6b6457e09190a35050565b634e487b7160e01b600052604160045260246000fd5b604051601f8201601f1916810167ffffffffffffffff81118282101715610ee057610ee0610ea1565b604052919050565b8015158114610b7f57600080fd5b600060808284031215610f0857600080fd5b6040516080810181811067ffffffffffffffff82111715610f2b57610f2b610ea1565b80604052508091508235815260208301356020820152604083013560408201526060830135610f5981610ee8565b6060919091015292915050565b6000806101008385031215610f7a57600080fd5b610f848484610ef6565b9150610f938460808501610ef6565b90509250929050565b6001600160a01b0381168114610b7f57600080fd5b600080600060608486031215610fc657600080fd5b8335610fd181610f9c565b92506020840135610fe181610f9c565b929592945050506040919091013590565b60008060006060848603121561100757600080fd5b833561101281610f9c565b92506020848101359250604085013567ffffffffffffffff8082111561103757600080fd5b818701915087601f83011261104b57600080fd5b81358181111561105d5761105d610ea1565b61106f601f8201601f19168501610eb7565b9150808252888482850101111561108557600080fd5b80848401858401376000848284010152508093505050509250925092565b6000602082840312156110b557600080fd5b8135610b8e81610f9c565b6000602082840312156110d257600080fd5b5051919050565b6000602082840312156110eb57600080fd5b8151610b8e81610ee8565b92835260208301919091526001600160a01b0316604082015260806060820181905260009082015260a00190565b6000825160005b81811015611145576020818601810151858301520161112b565b506000920191825250919050565b634e487b7160e01b600052601160045260246000fd5b808202811582820484141761030e5761030e611153565b60008261119d57634e487b7160e01b600052601260045260246000fd5b500490565b8181038181111561030e5761030e611153565b8082018082111561030e5761030e611153565b80516001600160701b03811681146111df57600080fd5b919050565b6000806000606084860312156111f957600080fd5b611202846111c8565b9250611210602085016111c8565b9150604084015163ffffffff8116811461122957600080fd5b809150509250925092565b60006020828403121561124657600080fd5b8151610b8e81610f9c56fea26469706673582212201fb2e2fbe14500a8b65b97cd7f080c22b690a7bb3b0d2a14fdcddc946105137b64736f6c63430008140033",
    "linkReferences": {}
  },
  "methodIdentifiers": {
    "WETH_ADDRESS()": "040141e5",
    "call(address,uint256,bytes)": "6dbf2fa0",
    "executeArbitrage(address,address,uint256)": "650f84be",
    "getAmountIn((uint256,uint256,uint256,bool),(uint256,uint256,uint256,bool))": "eb6b2116",
    "getDenominator((uint256,uint256,uint256,bool),(uint256,uint256,uint256,bool))": "1fa7d39b",
    "getNumerator((uint256,uint256,uint256,bool),(uint256,uint256,uint256,bool))": "00bb7d67",
    "owner()": "8da5cb5b",
    "renounceOwnership()": "715018a6",
    "transferOwnership(address)": "f2fde38b",
    "withdrawETHToOwner()": "77432b8c",
    "withdrawWETHToOwner()": "ea3e506c"
  },
  "id": 4
}